{
  "_format": "hh-sol-artifact-1",
  "contractName": "ReputationSystem",
  "sourceName": "contracts/Reputation.sol",
  "abi": [
    {
      "anonymous": false,
      "inputs": [
        {
          "indexed": true,
          "internalType": "address",
          "name": "user",
          "type": "address"
        },
        {
          "indexed": false,
          "internalType": "int256",
          "name": "newReputation",
          "type": "int256"
        }
      ],
      "name": "ReputationUpdated",
      "type": "event"
    },
    {
      "anonymous": false,
      "inputs": [
        {
          "indexed": true,
          "internalType": "address",
          "name": "user",
          "type": "address"
        }
      ],
      "name": "UserRegistered",
      "type": "event"
    },
    {
      "inputs": [
        {
          "internalType": "address",
          "name": "_user",
          "type": "address"
        }
      ],
      "name": "getReputation",
      "outputs": [
        {
          "internalType": "int256",
          "name": "",
          "type": "int256"
        }
      ],
      "stateMutability": "view",
      "type": "function"
    },
    {
      "inputs": [
        {
          "internalType": "address",
          "name": "_user",
          "type": "address"
        },
        {
          "internalType": "int256",
          "name": "_score",
          "type": "int256"
        }
      ],
      "name": "rateUser",
      "outputs": [],
      "stateMutability": "nonpayable",
      "type": "function"
    },
    {
      "inputs": [],
      "name": "registerUser",
      "outputs": [],
      "stateMutability": "nonpayable",
      "type": "function"
    },
    {
      "inputs": [
        {
          "internalType": "address",
          "name": "",
          "type": "address"
        }
      ],
      "name": "users",
      "outputs": [
        {
          "internalType": "bool",
          "name": "registered",
          "type": "bool"
        },
        {
          "internalType": "int256",
          "name": "reputation",
          "type": "int256"
        }
      ],
      "stateMutability": "view",
      "type": "function"
    }
  ],
  "bytecode": "0x6080604052348015600f57600080fd5b5061098c8061001f6000396000f3fe608060405234801561001057600080fd5b506004361061004c5760003560e01c80634d3820eb146100515780639c89a0e21461005b578063a87430ba1461008b578063cb418632146100bc575b600080fd5b6100596100d8565b005b61007560048036038101906100709190610611565b610230565b6040516100829190610657565b60405180910390f35b6100a560048036038101906100a09190610611565b610309565b6040516100b392919061068d565b60405180910390f35b6100d660048036038101906100d191906106e2565b61033a565b005b6000803373ffffffffffffffffffffffffffffffffffffffff1673ffffffffffffffffffffffffffffffffffffffff16815260200190815260200160002060000160009054906101000a900460ff1615610167576040517f08c379a000000000000000000000000000000000000000000000000000000000815260040161015e9061077f565b60405180910390fd5b604051806040016040528060011515815260200160008152506000803373ffffffffffffffffffffffffffffffffffffffff1673ffffffffffffffffffffffffffffffffffffffff16815260200190815260200160002060008201518160000160006101000a81548160ff021916908315150217905550602082015181600101559050503373ffffffffffffffffffffffffffffffffffffffff167f54db7a5cb4735e1aac1f53db512d3390390bb6637bd30ad4bf9fc98667d9b9b960405160405180910390a2565b60008060008373ffffffffffffffffffffffffffffffffffffffff1673ffffffffffffffffffffffffffffffffffffffff16815260200190815260200160002060000160009054906101000a900460ff166102c0576040517f08c379a00000000000000000000000000000000000000000000000000000000081526004016102b7906107eb565b60405180910390fd5b6000808373ffffffffffffffffffffffffffffffffffffffff1673ffffffffffffffffffffffffffffffffffffffff168152602001908152602001600020600101549050919050565b60006020528060005260406000206000915090508060000160009054906101000a900460ff16908060010154905082565b6000803373ffffffffffffffffffffffffffffffffffffffff1673ffffffffffffffffffffffffffffffffffffffff16815260200190815260200160002060000160009054906101000a900460ff166103c8576040517f08c379a00000000000000000000000000000000000000000000000000000000081526004016103bf90610857565b60405180910390fd5b6000808373ffffffffffffffffffffffffffffffffffffffff1673ffffffffffffffffffffffffffffffffffffffff16815260200190815260200160002060000160009054906101000a900460ff16610456576040517f08c379a000000000000000000000000000000000000000000000000000000000815260040161044d906107eb565b60405180910390fd5b600181148061048457507fffffffffffffffffffffffffffffffffffffffffffffffffffffffffffffffff81145b6104c3576040517f08c379a00000000000000000000000000000000000000000000000000000000081526004016104ba906108c3565b60405180910390fd5b806000808473ffffffffffffffffffffffffffffffffffffffff1673ffffffffffffffffffffffffffffffffffffffff16815260200190815260200160002060010160008282546105149190610912565b925050819055508173ffffffffffffffffffffffffffffffffffffffff167f21b93f5364d09d606ec33450e45ad2e33958e3dac6c4f771ed1218f1eca47db56000808573ffffffffffffffffffffffffffffffffffffffff1673ffffffffffffffffffffffffffffffffffffffff168152602001908152602001600020600101546040516105a29190610657565b60405180910390a25050565b600080fd5b600073ffffffffffffffffffffffffffffffffffffffff82169050919050565b60006105de826105b3565b9050919050565b6105ee816105d3565b81146105f957600080fd5b50565b60008135905061060b816105e5565b92915050565b600060208284031215610627576106266105ae565b5b6000610635848285016105fc565b91505092915050565b6000819050919050565b6106518161063e565b82525050565b600060208201905061066c6000830184610648565b92915050565b60008115159050919050565b61068781610672565b82525050565b60006040820190506106a2600083018561067e565b6106af6020830184610648565b9392505050565b6106bf8161063e565b81146106ca57600080fd5b50565b6000813590506106dc816106b6565b92915050565b600080604083850312156106f9576106f86105ae565b5b6000610707858286016105fc565b9250506020610718858286016106cd565b9150509250929050565b600082825260208201905092915050565b7f5573657220616c72656164792072656769737465726564000000000000000000600082015250565b6000610769601783610722565b915061077482610733565b602082019050919050565b600060208201905081810360008301526107988161075c565b9050919050565b7f55736572206e6f74207265676973746572656400000000000000000000000000600082015250565b60006107d5601383610722565b91506107e08261079f565b602082019050919050565b60006020820190508181036000830152610804816107c8565b9050919050565b7f596f75206d757374206265207265676973746572656420746f20726174650000600082015250565b6000610841601e83610722565b915061084c8261080b565b602082019050919050565b6000602082019050818103600083015261087081610834565b9050919050565b7f4f6e6c79202b31206f72202d3120726174696e677320616c6c6f776564000000600082015250565b60006108ad601d83610722565b91506108b882610877565b602082019050919050565b600060208201905081810360008301526108dc816108a0565b9050919050565b7f4e487b7100000000000000000000000000000000000000000000000000000000600052601160045260246000fd5b600061091d8261063e565b91506109288361063e565b9250828201905082811215600083121683821260008412151617156109505761094f6108e3565b5b9291505056fea264697066735822122075bba4c19eec7a3d99ad081ee375de10c25e2e1ebfa1776ff916367707e2d8fe64736f6c634300081c0033",
  "linkReferences": {},
  "deployedLinkReferences": {}
}